:100000000C942A000C943C000C943C000C943C0092
:100010000C943C000C943C000C943C000C943C0070
:100020000C943C000C943E000C943C000C943C005E
:100030000C943C000C943C000C943C000C943C0050
:100040000C943C000C943C000C943C000C943C0040
:100050000C943C0011241FBECFE5D4E0DEBFCDBF21
:1000600010E0A0E6B0E001C01D92A236B107E1F7B2
:100070000E946C000C94CB000C9400001F920F9215
:100080000FB60F9211242F938F939F93809160004E
:10009000909161000196909361008093600027E049
:1000A0008231920751F485B3882339F085B38150AA
:1000B00085BB10926100109260009F918F912F91EB
:1000C0000F900FBE0F901F90189512BE81E089BF50
:1000D00083B7856883BF089578948FE084BBB89A0E
:1000E000C098B99AC1980E9498008A3008F485BBDC
:1000F0000E94650085B38823E9F7C09AC19A8FE30F
:1001000092E4AFE081509040A040E1F700C00000D1
:10011000C098C1988FE392E4AFE081509040A04036
:10012000E1F700C00000DFCF8B3009F480E00895D4
:1001300080E060E170E0E0E0F0E0A0E09B01082EEC
:1001400002C0220F331F0A94E2F72ABB20952BBB73
:10015000C89B10C09F01922F9F5F49B32F5F3F4FF5
:1001600050E0022E02C0559547950A94E2F740FDF3
:100170000AC001C090E08F5F292F220F920F890FD4
:100180000E94940008952330310529F78F5F833052
:0A019000A8F28A2FD3CFF894FFCF16
:00000001FF
